{"abi":[{"type":"constructor","inputs":[{"name":"_provider","type":"address","internalType":"address"},{"name":"_client","type":"address","internalType":"address"},{"name":"_amount","type":"uint256","internalType":"uint256"},{"name":"_releaseDate","type":"uint256","internalType":"uint256"},{"name":"_token","type":"address","internalType":"address"},{"name":"_arbitrator","type":"address","internalType":"address"}],"stateMutability":"nonpayable"},{"type":"function","name":"arbitrator","inputs":[],"outputs":[{"name":"","type":"address","internalType":"address"}],"stateMutability":"view"},{"type":"function","name":"client","inputs":[],"outputs":[{"name":"","type":"address","internalType":"address"}],"stateMutability":"view"},{"type":"function","name":"deposit","inputs":[],"outputs":[],"stateMutability":"nonpayable"},{"type":"function","name":"getAmount","inputs":[],"outputs":[{"name":"","type":"uint256","internalType":"uint256"}],"stateMutability":"view"},{"type":"function","name":"owner","inputs":[],"outputs":[{"name":"","type":"address","internalType":"address"}],"stateMutability":"view"},{"type":"function","name":"provider","inputs":[],"outputs":[{"name":"","type":"address","internalType":"address"}],"stateMutability":"view"},{"type":"function","name":"raiseDispute","inputs":[],"outputs":[],"stateMutability":"nonpayable"},{"type":"function","name":"refund","inputs":[],"outputs":[],"stateMutability":"nonpayable"},{"type":"function","name":"release","inputs":[],"outputs":[],"stateMutability":"nonpayable"},{"type":"function","name":"releaseDate","inputs":[],"outputs":[{"name":"","type":"uint256","internalType":"uint256"}],"stateMutability":"view"},{"type":"function","name":"renounceOwnership","inputs":[],"outputs":[],"stateMutability":"nonpayable"},{"type":"function","name":"resolve","inputs":[{"name":"releaseToClient","type":"bool","internalType":"bool"}],"outputs":[],"stateMutability":"nonpayable"},{"type":"function","name":"status","inputs":[],"outputs":[{"name":"","type":"uint8","internalType":"enum Escrow.Status"}],"stateMutability":"view"},{"type":"function","name":"token","inputs":[],"outputs":[{"name":"","type":"address","internalType":"address"}],"stateMutability":"view"},{"type":"function","name":"transferOwnership","inputs":[{"name":"newOwner","type":"address","internalType":"address"}],"outputs":[],"stateMutability":"nonpayable"},{"type":"event","name":"Deposited","inputs":[{"name":"provider","type":"address","indexed":true,"internalType":"address"},{"name":"amount","type":"uint256","indexed":false,"internalType":"uint256"}],"anonymous":false},{"type":"event","name":"DisputeRaised","inputs":[{"name":"by","type":"address","indexed":true,"internalType":"address"}],"anonymous":false},{"type":"event","name":"OwnershipTransferred","inputs":[{"name":"previousOwner","type":"address","indexed":true,"internalType":"address"},{"name":"newOwner","type":"address","indexed":true,"internalType":"address"}],"anonymous":false},{"type":"event","name":"Released","inputs":[{"name":"client","type":"address","indexed":true,"internalType":"address"},{"name":"amount","type":"uint256","indexed":false,"internalType":"uint256"}],"anonymous":false},{"type":"event","name":"Resolved","inputs":[{"name":"winner","type":"address","indexed":true,"internalType":"address"},{"name":"amount","type":"uint256","indexed":false,"internalType":"uint256"}],"anonymous":false},{"type":"error","name":"OwnableInvalidOwner","inputs":[{"name":"owner","type":"address","internalType":"address"}]},{"type":"error","name":"OwnableUnauthorizedAccount","inputs":[{"name":"account","type":"address","internalType":"address"}]},{"type":"error","name":"ReentrancyGuardReentrantCall","inputs":[]}],"bytecode":{"object":"0x608060405234801561000f575f5ffd5b506040516127c73803806127c7833981810160405281019061003191906105d9565b33600161005061004561045560201b60201c565b61047e60201b60201c565b5f01819055505f73ffffffffffffffffffffffffffffffffffffffff168173ffffffffffffffffffffffffffffffffffffffff16036100c6575f6040517f1e4fbdf70000000000000000000000000000000000000000000000000000000081526004016100bd9190610671565b60405180910390fd5b6100d58161048760201b60201c565b505f73ffffffffffffffffffffffffffffffffffffffff168673ffffffffffffffffffffffffffffffffffffffff1603610144576040517f08c379a000000000000000000000000000000000000000000000000000000000815260040161013b906106e4565b60405180910390fd5b5f73ffffffffffffffffffffffffffffffffffffffff168573ffffffffffffffffffffffffffffffffffffffff16036101b2576040517f08c379a00000000000000000000000000000000000000000000000000000000081526004016101a99061074c565b60405180910390fd5b5f84116101f4576040517f08c379a00000000000000000000000000000000000000000000000000000000081526004016101eb906107b4565b60405180910390fd5b428311610236576040517f08c379a000000000000000000000000000000000000000000000000000000000815260040161022d90610842565b60405180910390fd5b5f73ffffffffffffffffffffffffffffffffffffffff168273ffffffffffffffffffffffffffffffffffffffff16036102a4576040517f08c379a000000000000000000000000000000000000000000000000000000000815260040161029b906108aa565b60405180910390fd5b5f73ffffffffffffffffffffffffffffffffffffffff168173ffffffffffffffffffffffffffffffffffffffff1603610312576040517f08c379a000000000000000000000000000000000000000000000000000000000815260040161030990610912565b60405180910390fd5b8560015f6101000a81548173ffffffffffffffffffffffffffffffffffffffff021916908373ffffffffffffffffffffffffffffffffffffffff1602179055508460025f6101000a81548173ffffffffffffffffffffffffffffffffffffffff021916908373ffffffffffffffffffffffffffffffffffffffff16021790555083600481905550826005819055508160035f6101000a81548173ffffffffffffffffffffffffffffffffffffffff021916908373ffffffffffffffffffffffffffffffffffffffff1602179055505f60065f6101000a81548160ff0219169083600481111561040457610403610930565b5b021790555080600660016101000a81548173ffffffffffffffffffffffffffffffffffffffff021916908373ffffffffffffffffffffffffffffffffffffffff16021790555050505050505061095d565b5f7f9b779b17422d0df92223018b32b4d1fa46e071723d6817e2486d003becc55f005f1b905090565b5f819050919050565b5f5f5f9054906101000a900473ffffffffffffffffffffffffffffffffffffffff169050815f5f6101000a81548173ffffffffffffffffffffffffffffffffffffffff021916908373ffffffffffffffffffffffffffffffffffffffff1602179055508173ffffffffffffffffffffffffffffffffffffffff168173ffffffffffffffffffffffffffffffffffffffff167f8be0079c531659141344cd1fd0a4f28419497f9722a3daafe3b4186f6b6457e060405160405180910390a35050565b5f5ffd5b5f73ffffffffffffffffffffffffffffffffffffffff82169050919050565b5f6105758261054c565b9050919050565b6105858161056b565b811461058f575f5ffd5b50565b5f815190506105a08161057c565b92915050565b5f819050919050565b6105b8816105a6565b81146105c2575f5ffd5b50565b5f815190506105d3816105af565b92915050565b5f5f5f5f5f5f60c087890312156105f3576105f2610548565b5b5f61060089828a01610592565b965050602061061189828a01610592565b955050604061062289828a016105c5565b945050606061063389828a016105c5565b935050608061064489828a01610592565b92505060a061065589828a01610592565b9150509295509295509295565b61066b8161056b565b82525050565b5f6020820190506106845f830184610662565b92915050565b5f82825260208201905092915050565b7f4e65656420612070726f766964657220616464726573730000000000000000005f82015250565b5f6106ce60178361068a565b91506106d98261069a565b602082019050919050565b5f6020820190508181035f8301526106fb816106c2565b9050919050565b7f4e656564206120636c69656e74206164647265737300000000000000000000005f82015250565b5f61073660158361068a565b915061074182610702565b602082019050919050565b5f6020820190508181035f8301526107638161072a565b9050919050565b7f416d6f756e74206e6565647320746f20626520706f73697469766500000000005f82015250565b5f61079e601b8361068a565b91506107a98261076a565b602082019050919050565b5f6020820190508181035f8301526107cb81610792565b9050919050565b7f52656c656173652064617465206d75737420626520696e2074686520667574755f8201527f7265000000000000000000000000000000000000000000000000000000000000602082015250565b5f61082c60228361068a565b9150610837826107d2565b604082019050919050565b5f6020820190508181035f83015261085981610820565b9050919050565b7f496e76616c696420746f6b656e000000000000000000000000000000000000005f82015250565b5f610894600d8361068a565b915061089f82610860565b602082019050919050565b5f6020820190508181035f8301526108c181610888565b9050919050565b7f496e76616c69642061726269747261746f7200000000000000000000000000005f82015250565b5f6108fc60128361068a565b9150610907826108c8565b602082019050919050565b5f6020820190508181035f830152610929816108f0565b9050919050565b7f4e487b71000000000000000000000000000000000000000000000000000000005f52602160045260245ffd5b611e5d8061096a5f395ff3fe608060405234801561000f575f5ffd5b50600436106100f3575f3560e01c8063715018a611610095578063d0e30db011610064578063d0e30db0146101ef578063d321fe29146101f9578063f2fde38b14610217578063fc0c546a14610233576100f3565b8063715018a61461019f57806386d1a69f146101a95780638da5cb5b146101b3578063b9e3e2db146101d1576100f3565b8063200d2ed2116100d1578063200d2ed21461014f578063590e1ae31461016d5780636cc6cde1146101775780636daa2d4414610195576100f3565b8063085d4883146100f75780630bede3f814610115578063109e94cf14610131575b5f5ffd5b6100ff610251565b60405161010c9190611421565b60405180910390f35b61012f600480360381019061012a9190611473565b610276565b005b6101396106ac565b6040516101469190611421565b60405180910390f35b6101576106d1565b6040516101649190611511565b60405180910390f35b6101756106e3565b005b61017f610959565b60405161018c9190611421565b60405180910390f35b61019d61097f565b005b6101a7610b49565b005b6101b1610b5c565b005b6101bb610e55565b6040516101c89190611421565b60405180910390f35b6101d9610e7c565b6040516101e69190611542565b60405180910390f35b6101f7610e82565b005b610201611116565b60405161020e9190611542565b60405180910390f35b610231600480360381019061022c9190611585565b61111f565b005b61023b6111a3565b6040516102489190611421565b60405180910390f35b60015f9054906101000a900473ffffffffffffffffffffffffffffffffffffffff1681565b61027e6111c8565b600660019054906101000a900473ffffffffffffffffffffffffffffffffffffffff1673ffffffffffffffffffffffffffffffffffffffff163373ffffffffffffffffffffffffffffffffffffffff161461030e576040517f08c379a000000000000000000000000000000000000000000000000000000000815260040161030590611630565b60405180910390fd5b600360048111156103225761032161149e565b5b60065f9054906101000a900460ff1660048111156103435761034261149e565b5b14610383576040517f08c379a000000000000000000000000000000000000000000000000000000000815260040161037a90611698565b60405180910390fd5b8015610502575f60035f9054906101000a900473ffffffffffffffffffffffffffffffffffffffff1673ffffffffffffffffffffffffffffffffffffffff1663a9059cbb60025f9054906101000a900473ffffffffffffffffffffffffffffffffffffffff166004546040518363ffffffff1660e01b81526004016104099291906116b6565b6020604051808303815f875af1158015610425573d5f5f3e3d5ffd5b505050506040513d601f19601f8201168201806040525081019061044991906116f1565b90508061048b576040517f08c379a000000000000000000000000000000000000000000000000000000000815260040161048290611766565b60405180910390fd5b60025f9054906101000a900473ffffffffffffffffffffffffffffffffffffffff1673ffffffffffffffffffffffffffffffffffffffff167f2e52bea68b967d05289fe0d069a066198bcd450dbac0bd00f371539cd308a6f06004546040516104f49190611542565b60405180910390a250610677565b5f60035f9054906101000a900473ffffffffffffffffffffffffffffffffffffffff1673ffffffffffffffffffffffffffffffffffffffff1663a9059cbb60015f9054906101000a900473ffffffffffffffffffffffffffffffffffffffff166004546040518363ffffffff1660e01b81526004016105829291906116b6565b6020604051808303815f875af115801561059e573d5f5f3e3d5ffd5b505050506040513d601f19601f820116820180604052508101906105c291906116f1565b905080610604576040517f08c379a00000000000000000000000000000000000000000000000000000000081526004016105fb906117ce565b60405180910390fd5b60015f9054906101000a900473ffffffffffffffffffffffffffffffffffffffff1673ffffffffffffffffffffffffffffffffffffffff167f2e52bea68b967d05289fe0d069a066198bcd450dbac0bd00f371539cd308a6f060045460405161066d9190611542565b60405180910390a2505b600460065f6101000a81548160ff0219169083600481111561069c5761069b61149e565b5b02179055506106a96111ea565b50565b60025f9054906101000a900473ffffffffffffffffffffffffffffffffffffffff1681565b60065f9054906101000a900460ff1681565b60015f9054906101000a900473ffffffffffffffffffffffffffffffffffffffff1673ffffffffffffffffffffffffffffffffffffffff163373ffffffffffffffffffffffffffffffffffffffff1614610772576040517f08c379a000000000000000000000000000000000000000000000000000000000815260040161076990611836565b60405180910390fd5b600160048111156107865761078561149e565b5b60065f9054906101000a900460ff1660048111156107a7576107a661149e565b5b146107e7576040517f08c379a00000000000000000000000000000000000000000000000000000000081526004016107de9061189e565b60405180910390fd5b600554421061082b576040517f08c379a00000000000000000000000000000000000000000000000000000000081526004016108229061192c565b60405180910390fd5b5f60035f9054906101000a900473ffffffffffffffffffffffffffffffffffffffff1673ffffffffffffffffffffffffffffffffffffffff1663a9059cbb60015f9054906101000a900473ffffffffffffffffffffffffffffffffffffffff166004546040518363ffffffff1660e01b81526004016108ab9291906116b6565b6020604051808303815f875af11580156108c7573d5f5f3e3d5ffd5b505050506040513d601f19601f820116820180604052508101906108eb91906116f1565b90508061092d576040517f08c379a000000000000000000000000000000000000000000000000000000000815260040161092490611994565b60405180910390fd5b5f60065f6101000a81548160ff021916908360048111156109515761095061149e565b5b021790555050565b600660019054906101000a900473ffffffffffffffffffffffffffffffffffffffff1681565b60015f9054906101000a900473ffffffffffffffffffffffffffffffffffffffff1673ffffffffffffffffffffffffffffffffffffffff163373ffffffffffffffffffffffffffffffffffffffff161480610a26575060025f9054906101000a900473ffffffffffffffffffffffffffffffffffffffff1673ffffffffffffffffffffffffffffffffffffffff163373ffffffffffffffffffffffffffffffffffffffff16145b610a65576040517f08c379a0000000000000000000000000000000000000000000000000000000008152600401610a5c90611a22565b60405180910390fd5b60016004811115610a7957610a7861149e565b5b60065f9054906101000a900460ff166004811115610a9a57610a9961149e565b5b14610ada576040517f08c379a0000000000000000000000000000000000000000000000000000000008152600401610ad190611a8a565b60405180910390fd5b600360065f6101000a81548160ff02191690836004811115610aff57610afe61149e565b5b02179055503373ffffffffffffffffffffffffffffffffffffffff167f0b3cd97b16a08a5c77357c276d248827ad32dfd56060f7c55d6255537ba3d96260405160405180910390a2565b610b51611204565b610b5a5f61128b565b565b610b646111c8565b60015f9054906101000a900473ffffffffffffffffffffffffffffffffffffffff1673ffffffffffffffffffffffffffffffffffffffff163373ffffffffffffffffffffffffffffffffffffffff1614610bf3576040517f08c379a0000000000000000000000000000000000000000000000000000000008152600401610bea90611b18565b60405180910390fd5b60016004811115610c0757610c0661149e565b5b60065f9054906101000a900460ff166004811115610c2857610c2761149e565b5b14610c68576040517f08c379a0000000000000000000000000000000000000000000000000000000008152600401610c5f90611b80565b60405180910390fd5b600554421015610cad576040517f08c379a0000000000000000000000000000000000000000000000000000000008152600401610ca490611c0e565b60405180910390fd5b5f60035f9054906101000a900473ffffffffffffffffffffffffffffffffffffffff1673ffffffffffffffffffffffffffffffffffffffff1663a9059cbb60025f9054906101000a900473ffffffffffffffffffffffffffffffffffffffff166004546040518363ffffffff1660e01b8152600401610d2d9291906116b6565b6020604051808303815f875af1158015610d49573d5f5f3e3d5ffd5b505050506040513d601f19601f82011682018060405250810190610d6d91906116f1565b905080610daf576040517f08c379a0000000000000000000000000000000000000000000000000000000008152600401610da690611c76565b60405180910390fd5b600260065f6101000a81548160ff02191690836004811115610dd457610dd361149e565b5b021790555060025f9054906101000a900473ffffffffffffffffffffffffffffffffffffffff1673ffffffffffffffffffffffffffffffffffffffff167fb21fb52d5749b80f3182f8c6992236b5e5576681880914484d7f4c9b062e619e600454604051610e429190611542565b60405180910390a250610e536111ea565b565b5f5f5f9054906101000a900473ffffffffffffffffffffffffffffffffffffffff16905090565b60055481565b610e8a6111c8565b60015f9054906101000a900473ffffffffffffffffffffffffffffffffffffffff1673ffffffffffffffffffffffffffffffffffffffff163373ffffffffffffffffffffffffffffffffffffffff1614610f19576040517f08c379a0000000000000000000000000000000000000000000000000000000008152600401610f1090611d04565b60405180910390fd5b5f6004811115610f2c57610f2b61149e565b5b60065f9054906101000a900460ff166004811115610f4d57610f4c61149e565b5b14610f8d576040517f08c379a0000000000000000000000000000000000000000000000000000000008152600401610f8490611d6c565b60405180910390fd5b5f60035f9054906101000a900473ffffffffffffffffffffffffffffffffffffffff1673ffffffffffffffffffffffffffffffffffffffff166323b872dd33306004546040518463ffffffff1660e01b8152600401610fee93929190611d8a565b6020604051808303815f875af115801561100a573d5f5f3e3d5ffd5b505050506040513d601f19601f8201168201806040525081019061102e91906116f1565b905080611070576040517f08c379a000000000000000000000000000000000000000000000000000000000815260040161106790611e09565b60405180910390fd5b600160065f6101000a81548160ff021916908360048111156110955761109461149e565b5b021790555060015f9054906101000a900473ffffffffffffffffffffffffffffffffffffffff1673ffffffffffffffffffffffffffffffffffffffff167f2da466a7b24304f47e87fa2e1e5a81b9831ce54fec19055ce277ca2f39ba42c46004546040516111039190611542565b60405180910390a2506111146111ea565b565b5f600454905090565b611127611204565b5f73ffffffffffffffffffffffffffffffffffffffff168173ffffffffffffffffffffffffffffffffffffffff1603611197575f6040517f1e4fbdf700000000000000000000000000000000000000000000000000000000815260040161118e9190611421565b60405180910390fd5b6111a08161128b565b50565b60035f9054906101000a900473ffffffffffffffffffffffffffffffffffffffff1681565b6111d061134c565b60026111e26111dd61138d565b6113b6565b5f0181905550565b60016111fc6111f761138d565b6113b6565b5f0181905550565b61120c6113bf565b73ffffffffffffffffffffffffffffffffffffffff1661122a610e55565b73ffffffffffffffffffffffffffffffffffffffff16146112895761124d6113bf565b6040517f118cdaa70000000000000000000000000000000000000000000000000000000081526004016112809190611421565b60405180910390fd5b565b5f5f5f9054906101000a900473ffffffffffffffffffffffffffffffffffffffff169050815f5f6101000a81548173ffffffffffffffffffffffffffffffffffffffff021916908373ffffffffffffffffffffffffffffffffffffffff1602179055508173ffffffffffffffffffffffffffffffffffffffff168173ffffffffffffffffffffffffffffffffffffffff167f8be0079c531659141344cd1fd0a4f28419497f9722a3daafe3b4186f6b6457e060405160405180910390a35050565b6113546113c6565b1561138b576040517f3ee5aeb500000000000000000000000000000000000000000000000000000000815260040160405180910390fd5b565b5f7f9b779b17422d0df92223018b32b4d1fa46e071723d6817e2486d003becc55f005f1b905090565b5f819050919050565b5f33905090565b5f60026113d96113d461138d565b6113b6565b5f015414905090565b5f73ffffffffffffffffffffffffffffffffffffffff82169050919050565b5f61140b826113e2565b9050919050565b61141b81611401565b82525050565b5f6020820190506114345f830184611412565b92915050565b5f5ffd5b5f8115159050919050565b6114528161143e565b811461145c575f5ffd5b50565b5f8135905061146d81611449565b92915050565b5f602082840312156114885761148761143a565b5b5f6114958482850161145f565b91505092915050565b7f4e487b71000000000000000000000000000000000000000000000000000000005f52602160045260245ffd5b600581106114dc576114db61149e565b5b50565b5f8190506114ec826114cb565b919050565b5f6114fb826114df565b9050919050565b61150b816114f1565b82525050565b5f6020820190506115245f830184611502565b92915050565b5f819050919050565b61153c8161152a565b82525050565b5f6020820190506115555f830184611533565b92915050565b61156481611401565b811461156e575f5ffd5b50565b5f8135905061157f8161155b565b92915050565b5f6020828403121561159a5761159961143a565b5b5f6115a784828501611571565b91505092915050565b5f82825260208201905092915050565b7f4f6e6c792061726269747261746f722063616e207265736f6c766520612064695f8201527f7370757465000000000000000000000000000000000000000000000000000000602082015250565b5f61161a6025836115b0565b9150611625826115c0565b604082019050919050565b5f6020820190508181035f8301526116478161160e565b9050919050565b7f4e6f2061637469766520646973707574650000000000000000000000000000005f82015250565b5f6116826011836115b0565b915061168d8261164e565b602082019050919050565b5f6020820190508181035f8301526116af81611676565b9050919050565b5f6040820190506116c95f830185611412565b6116d66020830184611533565b9392505050565b5f815190506116eb81611449565b92915050565b5f602082840312156117065761170561143a565b5b5f611713848285016116dd565b91505092915050565b7f526566756e6420746f20636c69656e7420756e7375636365737366756c0000005f82015250565b5f611750601d836115b0565b915061175b8261171c565b602082019050919050565b5f6020820190508181035f83015261177d81611744565b9050919050565b7f526566756e6420746f2070726f766964657220756e7375636365737366756c005f82015250565b5f6117b8601f836115b0565b91506117c382611784565b602082019050919050565b5f6020820190508181035f8301526117e5816117ac565b9050919050565b7f4f6e6c792070726f76696465722063616e20726566756e6400000000000000005f82015250565b5f6118206018836115b0565b915061182b826117ec565b602082019050919050565b5f6020820190508181035f83015261184d81611814565b9050919050565b7f4e6f2066756e6473206f6e2074686520636f6e747261637400000000000000005f82015250565b5f6118886018836115b0565b915061189382611854565b602082019050919050565b5f6020820190508181035f8301526118b58161187c565b9050919050565b7f526566756e64206f6e6c7920616c6c6f776564206265666f72652072656c65615f8201527f7365206461746500000000000000000000000000000000000000000000000000602082015250565b5f6119166027836115b0565b9150611921826118bc565b604082019050919050565b5f6020820190508181035f8301526119438161190a565b9050919050565b7f526566756e64206e6f74207375636365737366756c00000000000000000000005f82015250565b5f61197e6015836115b0565b91506119898261194a565b602082019050919050565b5f6020820190508181035f8301526119ab81611972565b9050919050565b7f4f6e6c7920636c69656e74206f722070726f76696465722063616e20726169735f8201527f6520612064697370757465000000000000000000000000000000000000000000602082015250565b5f611a0c602b836115b0565b9150611a17826119b2565b604082019050919050565b5f6020820190508181035f830152611a3981611a00565b9050919050565b7f5374617475732073686f756c642062652066756e6465640000000000000000005f82015250565b5f611a746017836115b0565b9150611a7f82611a40565b602082019050919050565b5f6020820190508181035f830152611aa181611a68565b9050919050565b7f4f6e6c79207468652070726f76696465722063616e2072656c656173652074685f8201527f652066756e647300000000000000000000000000000000000000000000000000602082015250565b5f611b026027836115b0565b9150611b0d82611aa8565b604082019050919050565b5f6020820190508181035f830152611b2f81611af6565b9050919050565b7f436f6e7472616374206e6f742066756e646564000000000000000000000000005f82015250565b5f611b6a6013836115b0565b9150611b7582611b36565b602082019050919050565b5f6020820190508181035f830152611b9781611b5e565b9050919050565b7f46756e64732063616e206f6e6c792062652072656c65617365642061667465725f8201527f207468652072656c6561736520646174652e0000000000000000000000000000602082015250565b5f611bf86032836115b0565b9150611c0382611b9e565b604082019050919050565b5f6020820190508181035f830152611c2581611bec565b9050919050565b7f4661696c656420746f207061792074686520636c69656e7400000000000000005f82015250565b5f611c606018836115b0565b9150611c6b82611c2c565b602082019050919050565b5f6020820190508181035f830152611c8d81611c54565b9050919050565b7f5468652066756e6473206861766520746f20636f6d652066726f6d20746865205f8201527f70726f7669646572000000000000000000000000000000000000000000000000602082015250565b5f611cee6028836115b0565b9150611cf982611c94565b604082019050919050565b5f6020820190508181035f830152611d1b81611ce2565b9050919050565b7f436f6e747261637420616c72656164792066756e6465640000000000000000005f82015250565b5f611d566017836115b0565b9150611d6182611d22565b602082019050919050565b5f6020820190508181035f830152611d8381611d4a565b9050919050565b5f606082019050611d9d5f830186611412565b611daa6020830185611412565b611db76040830184611533565b949350505050565b7f546f6b656e207472616e73666572206661696c656400000000000000000000005f82015250565b5f611df36015836115b0565b9150611dfe82611dbf565b602082019050919050565b5f6020820190508181035f830152611e2081611de7565b905091905056fea26469706673582212201e1efe5b2a7954a8f18a1dcdc1e02bf3c45b692598a5ac9139579d11146a583664736f6c63430008210033","linkReferences":{}},"methodIdentifiers":{"arbitrator()":"6cc6cde1","client()":"109e94cf","deposit()":"d0e30db0","getAmount()":"d321fe29","owner()":"8da5cb5b","provider()":"085d4883","raiseDispute()":"6daa2d44","refund()":"590e1ae3","release()":"86d1a69f","releaseDate()":"b9e3e2db","renounceOwnership()":"715018a6","resolve(bool)":"0bede3f8","status()":"200d2ed2","token()":"fc0c546a","transferOwnership(address)":"f2fde38b"},"id":2}